{
	"data": {
		"bytecode": {
			"linkReferences": {},
			"object": "6080604052348015600e575f80fd5b506114408061001c5f395ff3fe608060405234801561000f575f80fd5b506004361061004a575f3560e01c806355bc79151461004e5780638566e12c1461006a5780638a5e02f214610088578063fba91e20146100be575b5f80fd5b61006860048036038101906100639190610b3f565b6100ee565b005b6100726102ef565b60405161007f9190610e24565b60405180910390f35b6100a2600480360381019061009d9190610e44565b6105a8565b6040516100b59796959493929190610ec6565b60405180910390f35b6100d860048036038101906100d39190610e44565b61080d565b6040516100e59190610f8e565b60405180910390f35b6100f74261083c565b428111610139576040517f08c379a000000000000000000000000000000000000000000000000000000000815260040161013090611017565b60405180910390fd5b60016040518060e0016040528089815260200188815260200187815260200186815260200185815260200184815260200183815250908060018154018082558091505060019003905f5260205f2090600702015f909190919091505f820151815f0190816101a7919061122f565b5060208201518160010190816101bd919061122f565b5060408201518160020190816101d3919061122f565b5060608201518160030190816101e9919061122f565b506080820151816004015560a0820151816005015560c0820151816006015550505f6001805490509050335f808381526020019081526020015f205f6101000a81548173ffffffffffffffffffffffffffffffffffffffff021916908373ffffffffffffffffffffffffffffffffffffffff1602179055506102a06040518060400160405280601b81526020017f4e65772074656e646572206372656174656420776974682069643a0000000000815250826108d5565b7ffe4bab346f829befef434d13b8a3531f55be66682d086bc59ccb48d9968319dd81898989898989896040516102dd9897969594939291906112fe565b60405180910390a15050505050505050565b60606001805480602002602001604051908101604052809291908181526020015f905b8282101561059f578382905f5260205f2090600702016040518060e00160405290815f8201805461034290611062565b80601f016020809104026020016040519081016040528092919081815260200182805461036e90611062565b80156103b95780601f10610390576101008083540402835291602001916103b9565b820191905f5260205f20905b81548152906001019060200180831161039c57829003601f168201915b505050505081526020016001820180546103d290611062565b80601f01602080910402602001604051908101604052809291908181526020018280546103fe90611062565b80156104495780601f1061042057610100808354040283529160200191610449565b820191905f5260205f20905b81548152906001019060200180831161042c57829003601f168201915b5050505050815260200160028201805461046290611062565b80601f016020809104026020016040519081016040528092919081815260200182805461048e90611062565b80156104d95780601f106104b0576101008083540402835291602001916104d9565b820191905f5260205f20905b8154815290600101906020018083116104bc57829003601f168201915b505050505081526020016003820180546104f290611062565b80601f016020809104026020016040519081016040528092919081815260200182805461051e90611062565b80156105695780601f1061054057610100808354040283529160200191610569565b820191905f5260205f20905b81548152906001019060200180831161054c57829003601f168201915b50505050508152602001600482015481526020016005820154815260200160068201548152505081526020019060010190610312565b50505050905090565b600181815481106105b7575f80fd5b905f5260205f2090600702015f91509050805f0180546105d690611062565b80601f016020809104026020016040519081016040528092919081815260200182805461060290611062565b801561064d5780601f106106245761010080835404028352916020019161064d565b820191905f5260205f20905b81548152906001019060200180831161063057829003601f168201915b50505050509080600101805461066290611062565b80601f016020809104026020016040519081016040528092919081815260200182805461068e90611062565b80156106d95780601f106106b0576101008083540402835291602001916106d9565b820191905f5260205f20905b8154815290600101906020018083116106bc57829003601f168201915b5050505050908060020180546106ee90611062565b80601f016020809104026020016040519081016040528092919081815260200182805461071a90611062565b80156107655780601f1061073c57610100808354040283529160200191610765565b820191905f5260205f20905b81548152906001019060200180831161074857829003601f168201915b50505050509080600301805461077a90611062565b80601f01602080910402602001604051908101604052809291908181526020018280546107a690611062565b80156107f15780601f106107c8576101008083540402835291602001916107f1565b820191905f5260205f20905b8154815290600101906020018083116107d457829003601f168201915b5050505050908060040154908060050154908060060154905087565b5f602052805f5260405f205f915054906101000a900473ffffffffffffffffffffffffffffffffffffffff1681565b6108d2816040516024016108509190611396565b6040516020818303038152906040527ff82c50f1000000000000000000000000000000000000000000000000000000007bffffffffffffffffffffffffffffffffffffffffffffffffffffffff19166020820180517bffffffffffffffffffffffffffffffffffffffffffffffffffffffff8381831617835250505050610971565b50565b61096d82826040516024016108eb9291906113af565b6040516020818303038152906040527fb60e72cc000000000000000000000000000000000000000000000000000000007bffffffffffffffffffffffffffffffffffffffffffffffffffffffff19166020820180517bffffffffffffffffffffffffffffffffffffffffffffffffffffffff8381831617835250505050610971565b5050565b6109888161098061098b6109aa565b63ffffffff16565b50565b5f6a636f6e736f6c652e6c6f6790505f80835160208501845afa505050565b6109b5819050919050565b6109bd6113dd565b565b5f604051905090565b5f80fd5b5f80fd5b5f80fd5b5f80fd5b5f601f19601f8301169050919050565b7f4e487b71000000000000000000000000000000000000000000000000000000005f52604160045260245ffd5b610a1e826109d8565b810181811067ffffffffffffffff82111715610a3d57610a3c6109e8565b5b80604052505050565b5f610a4f6109bf565b9050610a5b8282610a15565b919050565b5f67ffffffffffffffff821115610a7a57610a796109e8565b5b610a83826109d8565b9050602081019050919050565b828183375f83830152505050565b5f610ab0610aab84610a60565b610a46565b905082815260208101848484011115610acc57610acb6109d4565b5b610ad7848285610a90565b509392505050565b5f82601f830112610af357610af26109d0565b5b8135610b03848260208601610a9e565b91505092915050565b5f819050919050565b610b1e81610b0c565b8114610b28575f80fd5b50565b5f81359050610b3981610b15565b92915050565b5f805f805f805f60e0888a031215610b5a57610b596109c8565b5b5f88013567ffffffffffffffff811115610b7757610b766109cc565b5b610b838a828b01610adf565b975050602088013567ffffffffffffffff811115610ba457610ba36109cc565b5b610bb08a828b01610adf565b965050604088013567ffffffffffffffff811115610bd157610bd06109cc565b5b610bdd8a828b01610adf565b955050606088013567ffffffffffffffff811115610bfe57610bfd6109cc565b5b610c0a8a828b01610adf565b9450506080610c1b8a828b01610b2b565b93505060a0610c2c8a828b01610b2b565b92505060c0610c3d8a828b01610b2b565b91505092959891949750929550565b5f81519050919050565b5f82825260208201905092915050565b5f819050602082019050919050565b5f81519050919050565b5f82825260208201905092915050565b8281835e5f83830152505050565b5f610ca782610c75565b610cb18185610c7f565b9350610cc1818560208601610c8f565b610cca816109d8565b840191505092915050565b610cde81610b0c565b82525050565b5f60e083015f8301518482035f860152610cfe8282610c9d565b91505060208301518482036020860152610d188282610c9d565b91505060408301518482036040860152610d328282610c9d565b91505060608301518482036060860152610d4c8282610c9d565b9150506080830151610d616080860182610cd5565b5060a0830151610d7460a0860182610cd5565b5060c0830151610d8760c0860182610cd5565b508091505092915050565b5f610d9d8383610ce4565b905092915050565b5f602082019050919050565b5f610dbb82610c4c565b610dc58185610c56565b935083602082028501610dd785610c66565b805f5b85811015610e125784840389528151610df38582610d92565b9450610dfe83610da5565b925060208a01995050600181019050610dda565b50829750879550505050505092915050565b5f6020820190508181035f830152610e3c8184610db1565b905092915050565b5f60208284031215610e5957610e586109c8565b5b5f610e6684828501610b2b565b91505092915050565b5f82825260208201905092915050565b5f610e8982610c75565b610e938185610e6f565b9350610ea3818560208601610c8f565b610eac816109d8565b840191505092915050565b610ec081610b0c565b82525050565b5f60e0820190508181035f830152610ede818a610e7f565b90508181036020830152610ef28189610e7f565b90508181036040830152610f068188610e7f565b90508181036060830152610f1a8187610e7f565b9050610f296080830186610eb7565b610f3660a0830185610eb7565b610f4360c0830184610eb7565b98975050505050505050565b5f73ffffffffffffffffffffffffffffffffffffffff82169050919050565b5f610f7882610f4f565b9050919050565b610f8881610f6e565b82525050565b5f602082019050610fa15f830184610f7f565b92915050565b7f446561646c696e65206d7573742062652067726561746572207468616e2063755f8201527f7272656e74206461746500000000000000000000000000000000000000000000602082015250565b5f611001602a83610e6f565b915061100c82610fa7565b604082019050919050565b5f6020820190508181035f83015261102e81610ff5565b9050919050565b7f4e487b71000000000000000000000000000000000000000000000000000000005f52602260045260245ffd5b5f600282049050600182168061107957607f821691505b60208210810361108c5761108b611035565b5b50919050565b5f819050815f5260205f209050919050565b5f6020601f8301049050919050565b5f82821b905092915050565b5f600883026110ee7fffffffffffffffffffffffffffffffffffffffffffffffffffffffffffffffff826110b3565b6110f886836110b3565b95508019841693508086168417925050509392505050565b5f819050919050565b5f61113361112e61112984610b0c565b611110565b610b0c565b9050919050565b5f819050919050565b61114c83611119565b6111606111588261113a565b8484546110bf565b825550505050565b5f90565b611174611168565b61117f818484611143565b505050565b5b818110156111a2576111975f8261116c565b600181019050611185565b5050565b601f8211156111e7576111b881611092565b6111c1846110a4565b810160208510156111d0578190505b6111e46111dc856110a4565b830182611184565b50505b505050565b5f82821c905092915050565b5f6112075f19846008026111ec565b1980831691505092915050565b5f61121f83836111f8565b9150826002028217905092915050565b61123882610c75565b67ffffffffffffffff811115611251576112506109e8565b5b61125b8254611062565b6112668282856111a6565b5f60209050601f831160018114611297575f8415611285578287015190505b61128f8582611214565b8655506112f6565b601f1984166112a586611092565b5f5b828110156112cc578489015182556001820191506020850194506020810190506112a7565b868310156112e957848901516112e5601f8916826111f8565b8355505b6001600288020188555050505b505050505050565b5f610100820190506113125f83018b610eb7565b8181036020830152611324818a610e7f565b905081810360408301526113388189610e7f565b9050818103606083015261134c8188610e7f565b905081810360808301526113608187610e7f565b905061136f60a0830186610eb7565b61137c60c0830185610eb7565b61138960e0830184610eb7565b9998505050505050505050565b5f6020820190506113a95f830184610eb7565b92915050565b5f6040820190508181035f8301526113c78185610e7f565b90506113d66020830184610eb7565b9392505050565b7f4e487b71000000000000000000000000000000000000000000000000000000005f52605160045260245ffdfea2646970667358221220d5faf6e5f5d6fea182ca32562347db4b950a715ea9ed2330f851525ef6a3f72464736f6c63430008190033",
			"opcodes": "PUSH1 0x80 PUSH1 0x40 MSTORE CALLVALUE DUP1 ISZERO PUSH1 0xE JUMPI PUSH0 DUP1 REVERT JUMPDEST POP PUSH2 0x1440 DUP1 PUSH2 0x1C PUSH0 CODECOPY PUSH0 RETURN INVALID PUSH1 0x80 PUSH1 0x40 MSTORE CALLVALUE DUP1 ISZERO PUSH2 0xF JUMPI PUSH0 DUP1 REVERT JUMPDEST POP PUSH1 0x4 CALLDATASIZE LT PUSH2 0x4A JUMPI PUSH0 CALLDATALOAD PUSH1 0xE0 SHR DUP1 PUSH4 0x55BC7915 EQ PUSH2 0x4E JUMPI DUP1 PUSH4 0x8566E12C EQ PUSH2 0x6A JUMPI DUP1 PUSH4 0x8A5E02F2 EQ PUSH2 0x88 JUMPI DUP1 PUSH4 0xFBA91E20 EQ PUSH2 0xBE JUMPI JUMPDEST PUSH0 DUP1 REVERT JUMPDEST PUSH2 0x68 PUSH1 0x4 DUP1 CALLDATASIZE SUB DUP2 ADD SWAP1 PUSH2 0x63 SWAP2 SWAP1 PUSH2 0xB3F JUMP JUMPDEST PUSH2 0xEE JUMP JUMPDEST STOP JUMPDEST PUSH2 0x72 PUSH2 0x2EF JUMP JUMPDEST PUSH1 0x40 MLOAD PUSH2 0x7F SWAP2 SWAP1 PUSH2 0xE24 JUMP JUMPDEST PUSH1 0x40 MLOAD DUP1 SWAP2 SUB SWAP1 RETURN JUMPDEST PUSH2 0xA2 PUSH1 0x4 DUP1 CALLDATASIZE SUB DUP2 ADD SWAP1 PUSH2 0x9D SWAP2 SWAP1 PUSH2 0xE44 JUMP JUMPDEST PUSH2 0x5A8 JUMP JUMPDEST PUSH1 0x40 MLOAD PUSH2 0xB5 SWAP8 SWAP7 SWAP6 SWAP5 SWAP4 SWAP3 SWAP2 SWAP1 PUSH2 0xEC6 JUMP JUMPDEST PUSH1 0x40 MLOAD DUP1 SWAP2 SUB SWAP1 RETURN JUMPDEST PUSH2 0xD8 PUSH1 0x4 DUP1 CALLDATASIZE SUB DUP2 ADD SWAP1 PUSH2 0xD3 SWAP2 SWAP1 PUSH2 0xE44 JUMP JUMPDEST PUSH2 0x80D JUMP JUMPDEST PUSH1 0x40 MLOAD PUSH2 0xE5 SWAP2 SWAP1 PUSH2 0xF8E JUMP JUMPDEST PUSH1 0x40 MLOAD DUP1 SWAP2 SUB SWAP1 RETURN JUMPDEST PUSH2 0xF7 TIMESTAMP PUSH2 0x83C JUMP JUMPDEST TIMESTAMP DUP2 GT PUSH2 0x139 JUMPI PUSH1 0x40 MLOAD PUSH32 0x8C379A000000000000000000000000000000000000000000000000000000000 DUP2 MSTORE PUSH1 0x4 ADD PUSH2 0x130 SWAP1 PUSH2 0x1017 JUMP JUMPDEST PUSH1 0x40 MLOAD DUP1 SWAP2 SUB SWAP1 REVERT JUMPDEST PUSH1 0x1 PUSH1 0x40 MLOAD DUP1 PUSH1 0xE0 ADD PUSH1 0x40 MSTORE DUP1 DUP10 DUP2 MSTORE PUSH1 0x20 ADD DUP9 DUP2 MSTORE PUSH1 0x20 ADD DUP8 DUP2 MSTORE PUSH1 0x20 ADD DUP7 DUP2 MSTORE PUSH1 0x20 ADD DUP6 DUP2 MSTORE PUSH1 0x20 ADD DUP5 DUP2 MSTORE PUSH1 0x20 ADD DUP4 DUP2 MSTORE POP SWAP1 DUP1 PUSH1 0x1 DUP2 SLOAD ADD DUP1 DUP3 SSTORE DUP1 SWAP2 POP POP PUSH1 0x1 SWAP1 SUB SWAP1 PUSH0 MSTORE PUSH1 0x20 PUSH0 KECCAK256 SWAP1 PUSH1 0x7 MUL ADD PUSH0 SWAP1 SWAP2 SWAP1 SWAP2 SWAP1 SWAP2 POP PUSH0 DUP3 ADD MLOAD DUP2 PUSH0 ADD SWAP1 DUP2 PUSH2 0x1A7 SWAP2 SWAP1 PUSH2 0x122F JUMP JUMPDEST POP PUSH1 0x20 DUP3 ADD MLOAD DUP2 PUSH1 0x1 ADD SWAP1 DUP2 PUSH2 0x1BD SWAP2 SWAP1 PUSH2 0x122F JUMP JUMPDEST POP PUSH1 0x40 DUP3 ADD MLOAD DUP2 PUSH1 0x2 ADD SWAP1 DUP2 PUSH2 0x1D3 SWAP2 SWAP1 PUSH2 0x122F JUMP JUMPDEST POP PUSH1 0x60 DUP3 ADD MLOAD DUP2 PUSH1 0x3 ADD SWAP1 DUP2 PUSH2 0x1E9 SWAP2 SWAP1 PUSH2 0x122F JUMP JUMPDEST POP PUSH1 0x80 DUP3 ADD MLOAD DUP2 PUSH1 0x4 ADD SSTORE PUSH1 0xA0 DUP3 ADD MLOAD DUP2 PUSH1 0x5 ADD SSTORE PUSH1 0xC0 DUP3 ADD MLOAD DUP2 PUSH1 0x6 ADD SSTORE POP POP PUSH0 PUSH1 0x1 DUP1 SLOAD SWAP1 POP SWAP1 POP CALLER PUSH0 DUP1 DUP4 DUP2 MSTORE PUSH1 0x20 ADD SWAP1 DUP2 MSTORE PUSH1 0x20 ADD PUSH0 KECCAK256 PUSH0 PUSH2 0x100 EXP DUP2 SLOAD DUP2 PUSH20 0xFFFFFFFFFFFFFFFFFFFFFFFFFFFFFFFFFFFFFFFF MUL NOT AND SWAP1 DUP4 PUSH20 0xFFFFFFFFFFFFFFFFFFFFFFFFFFFFFFFFFFFFFFFF AND MUL OR SWAP1 SSTORE POP PUSH2 0x2A0 PUSH1 0x40 MLOAD DUP1 PUSH1 0x40 ADD PUSH1 0x40 MSTORE DUP1 PUSH1 0x1B DUP2 MSTORE PUSH1 0x20 ADD PUSH32 0x4E65772074656E646572206372656174656420776974682069643A0000000000 DUP2 MSTORE POP DUP3 PUSH2 0x8D5 JUMP JUMPDEST PUSH32 0xFE4BAB346F829BEFEF434D13B8A3531F55BE66682D086BC59CCB48D9968319DD DUP2 DUP10 DUP10 DUP10 DUP10 DUP10 DUP10 DUP10 PUSH1 0x40 MLOAD PUSH2 0x2DD SWAP9 SWAP8 SWAP7 SWAP6 SWAP5 SWAP4 SWAP3 SWAP2 SWAP1 PUSH2 0x12FE JUMP JUMPDEST PUSH1 0x40 MLOAD DUP1 SWAP2 SUB SWAP1 LOG1 POP POP POP POP POP POP POP POP JUMP JUMPDEST PUSH1 0x60 PUSH1 0x1 DUP1 SLOAD DUP1 PUSH1 0x20 MUL PUSH1 0x20 ADD PUSH1 0x40 MLOAD SWAP1 DUP2 ADD PUSH1 0x40 MSTORE DUP1 SWAP3 SWAP2 SWAP1 DUP2 DUP2 MSTORE PUSH1 0x20 ADD PUSH0 SWAP1 JUMPDEST DUP3 DUP3 LT ISZERO PUSH2 0x59F JUMPI DUP4 DUP3 SWAP1 PUSH0 MSTORE PUSH1 0x20 PUSH0 KECCAK256 SWAP1 PUSH1 0x7 MUL ADD PUSH1 0x40 MLOAD DUP1 PUSH1 0xE0 ADD PUSH1 0x40 MSTORE SWAP1 DUP2 PUSH0 DUP3 ADD DUP1 SLOAD PUSH2 0x342 SWAP1 PUSH2 0x1062 JUMP JUMPDEST DUP1 PUSH1 0x1F ADD PUSH1 0x20 DUP1 SWAP2 DIV MUL PUSH1 0x20 ADD PUSH1 0x40 MLOAD SWAP1 DUP2 ADD PUSH1 0x40 MSTORE DUP1 SWAP3 SWAP2 SWAP1 DUP2 DUP2 MSTORE PUSH1 0x20 ADD DUP3 DUP1 SLOAD PUSH2 0x36E SWAP1 PUSH2 0x1062 JUMP JUMPDEST DUP1 ISZERO PUSH2 0x3B9 JUMPI DUP1 PUSH1 0x1F LT PUSH2 0x390 JUMPI PUSH2 0x100 DUP1 DUP4 SLOAD DIV MUL DUP4 MSTORE SWAP2 PUSH1 0x20 ADD SWAP2 PUSH2 0x3B9 JUMP JUMPDEST DUP3 ADD SWAP2 SWAP1 PUSH0 MSTORE PUSH1 0x20 PUSH0 KECCAK256 SWAP1 JUMPDEST DUP2 SLOAD DUP2 MSTORE SWAP1 PUSH1 0x1 ADD SWAP1 PUSH1 0x20 ADD DUP1 DUP4 GT PUSH2 0x39C JUMPI DUP3 SWAP1 SUB PUSH1 0x1F AND DUP3 ADD SWAP2 JUMPDEST POP POP POP POP POP DUP2 MSTORE PUSH1 0x20 ADD PUSH1 0x1 DUP3 ADD DUP1 SLOAD PUSH2 0x3D2 SWAP1 PUSH2 0x1062 JUMP JUMPDEST DUP1 PUSH1 0x1F ADD PUSH1 0x20 DUP1 SWAP2 DIV MUL PUSH1 0x20 ADD PUSH1 0x40 MLOAD SWAP1 DUP2 ADD PUSH1 0x40 MSTORE DUP1 SWAP3 SWAP2 SWAP1 DUP2 DUP2 MSTORE PUSH1 0x20 ADD DUP3 DUP1 SLOAD PUSH2 0x3FE SWAP1 PUSH2 0x1062 JUMP JUMPDEST DUP1 ISZERO PUSH2 0x449 JUMPI DUP1 PUSH1 0x1F LT PUSH2 0x420 JUMPI PUSH2 0x100 DUP1 DUP4 SLOAD DIV MUL DUP4 MSTORE SWAP2 PUSH1 0x20 ADD SWAP2 PUSH2 0x449 JUMP JUMPDEST DUP3 ADD SWAP2 SWAP1 PUSH0 MSTORE PUSH1 0x20 PUSH0 KECCAK256 SWAP1 JUMPDEST DUP2 SLOAD DUP2 MSTORE SWAP1 PUSH1 0x1 ADD SWAP1 PUSH1 0x20 ADD DUP1 DUP4 GT PUSH2 0x42C JUMPI DUP3 SWAP1 SUB PUSH1 0x1F AND DUP3 ADD SWAP2 JUMPDEST POP POP POP POP POP DUP2 MSTORE PUSH1 0x20 ADD PUSH1 0x2 DUP3 ADD DUP1 SLOAD PUSH2 0x462 SWAP1 PUSH2 0x1062 JUMP JUMPDEST DUP1 PUSH1 0x1F ADD PUSH1 0x20 DUP1 SWAP2 DIV MUL PUSH1 0x20 ADD PUSH1 0x40 MLOAD SWAP1 DUP2 ADD PUSH1 0x40 MSTORE DUP1 SWAP3 SWAP2 SWAP1 DUP2 DUP2 MSTORE PUSH1 0x20 ADD DUP3 DUP1 SLOAD PUSH2 0x48E SWAP1 PUSH2 0x1062 JUMP JUMPDEST DUP1 ISZERO PUSH2 0x4D9 JUMPI DUP1 PUSH1 0x1F LT PUSH2 0x4B0 JUMPI PUSH2 0x100 DUP1 DUP4 SLOAD DIV MUL DUP4 MSTORE SWAP2 PUSH1 0x20 ADD SWAP2 PUSH2 0x4D9 JUMP JUMPDEST DUP3 ADD SWAP2 SWAP1 PUSH0 MSTORE PUSH1 0x20 PUSH0 KECCAK256 SWAP1 JUMPDEST DUP2 SLOAD DUP2 MSTORE SWAP1 PUSH1 0x1 ADD SWAP1 PUSH1 0x20 ADD DUP1 DUP4 GT PUSH2 0x4BC JUMPI DUP3 SWAP1 SUB PUSH1 0x1F AND DUP3 ADD SWAP2 JUMPDEST POP POP POP POP POP DUP2 MSTORE PUSH1 0x20 ADD PUSH1 0x3 DUP3 ADD DUP1 SLOAD PUSH2 0x4F2 SWAP1 PUSH2 0x1062 JUMP JUMPDEST DUP1 PUSH1 0x1F ADD PUSH1 0x20 DUP1 SWAP2 DIV MUL PUSH1 0x20 ADD PUSH1 0x40 MLOAD SWAP1 DUP2 ADD PUSH1 0x40 MSTORE DUP1 SWAP3 SWAP2 SWAP1 DUP2 DUP2 MSTORE PUSH1 0x20 ADD DUP3 DUP1 SLOAD PUSH2 0x51E SWAP1 PUSH2 0x1062 JUMP JUMPDEST DUP1 ISZERO PUSH2 0x569 JUMPI DUP1 PUSH1 0x1F LT PUSH2 0x540 JUMPI PUSH2 0x100 DUP1 DUP4 SLOAD DIV MUL DUP4 MSTORE SWAP2 PUSH1 0x20 ADD SWAP2 PUSH2 0x569 JUMP JUMPDEST DUP3 ADD SWAP2 SWAP1 PUSH0 MSTORE PUSH1 0x20 PUSH0 KECCAK256 SWAP1 JUMPDEST DUP2 SLOAD DUP2 MSTORE SWAP1 PUSH1 0x1 ADD SWAP1 PUSH1 0x20 ADD DUP1 DUP4 GT PUSH2 0x54C JUMPI DUP3 SWAP1 SUB PUSH1 0x1F AND DUP3 ADD SWAP2 JUMPDEST POP POP POP POP POP DUP2 MSTORE PUSH1 0x20 ADD PUSH1 0x4 DUP3 ADD SLOAD DUP2 MSTORE PUSH1 0x20 ADD PUSH1 0x5 DUP3 ADD SLOAD DUP2 MSTORE PUSH1 0x20 ADD PUSH1 0x6 DUP3 ADD SLOAD DUP2 MSTORE POP POP DUP2 MSTORE PUSH1 0x20 ADD SWAP1 PUSH1 0x1 ADD SWAP1 PUSH2 0x312 JUMP JUMPDEST POP POP POP POP SWAP1 POP SWAP1 JUMP JUMPDEST PUSH1 0x1 DUP2 DUP2 SLOAD DUP2 LT PUSH2 0x5B7 JUMPI PUSH0 DUP1 REVERT JUMPDEST SWAP1 PUSH0 MSTORE PUSH1 0x20 PUSH0 KECCAK256 SWAP1 PUSH1 0x7 MUL ADD PUSH0 SWAP2 POP SWAP1 POP DUP1 PUSH0 ADD DUP1 SLOAD PUSH2 0x5D6 SWAP1 PUSH2 0x1062 JUMP JUMPDEST DUP1 PUSH1 0x1F ADD PUSH1 0x20 DUP1 SWAP2 DIV MUL PUSH1 0x20 ADD PUSH1 0x40 MLOAD SWAP1 DUP2 ADD PUSH1 0x40 MSTORE DUP1 SWAP3 SWAP2 SWAP1 DUP2 DUP2 MSTORE PUSH1 0x20 ADD DUP3 DUP1 SLOAD PUSH2 0x602 SWAP1 PUSH2 0x1062 JUMP JUMPDEST DUP1 ISZERO PUSH2 0x64D JUMPI DUP1 PUSH1 0x1F LT PUSH2 0x624 JUMPI PUSH2 0x100 DUP1 DUP4 SLOAD DIV MUL DUP4 MSTORE SWAP2 PUSH1 0x20 ADD SWAP2 PUSH2 0x64D JUMP JUMPDEST DUP3 ADD SWAP2 SWAP1 PUSH0 MSTORE PUSH1 0x20 PUSH0 KECCAK256 SWAP1 JUMPDEST DUP2 SLOAD DUP2 MSTORE SWAP1 PUSH1 0x1 ADD SWAP1 PUSH1 0x20 ADD DUP1 DUP4 GT PUSH2 0x630 JUMPI DUP3 SWAP1 SUB PUSH1 0x1F AND DUP3 ADD SWAP2 JUMPDEST POP POP POP POP POP SWAP1 DUP1 PUSH1 0x1 ADD DUP1 SLOAD PUSH2 0x662 SWAP1 PUSH2 0x1062 JUMP JUMPDEST DUP1 PUSH1 0x1F ADD PUSH1 0x20 DUP1 SWAP2 DIV MUL PUSH1 0x20 ADD PUSH1 0x40 MLOAD SWAP1 DUP2 ADD PUSH1 0x40 MSTORE DUP1 SWAP3 SWAP2 SWAP1 DUP2 DUP2 MSTORE PUSH1 0x20 ADD DUP3 DUP1 SLOAD PUSH2 0x68E SWAP1 PUSH2 0x1062 JUMP JUMPDEST DUP1 ISZERO PUSH2 0x6D9 JUMPI DUP1 PUSH1 0x1F LT PUSH2 0x6B0 JUMPI PUSH2 0x100 DUP1 DUP4 SLOAD DIV MUL DUP4 MSTORE SWAP2 PUSH1 0x20 ADD SWAP2 PUSH2 0x6D9 JUMP JUMPDEST DUP3 ADD SWAP2 SWAP1 PUSH0 MSTORE PUSH1 0x20 PUSH0 KECCAK256 SWAP1 JUMPDEST DUP2 SLOAD DUP2 MSTORE SWAP1 PUSH1 0x1 ADD SWAP1 PUSH1 0x20 ADD DUP1 DUP4 GT PUSH2 0x6BC JUMPI DUP3 SWAP1 SUB PUSH1 0x1F AND DUP3 ADD SWAP2 JUMPDEST POP POP POP POP POP SWAP1 DUP1 PUSH1 0x2 ADD DUP1 SLOAD PUSH2 0x6EE SWAP1 PUSH2 0x1062 JUMP JUMPDEST DUP1 PUSH1 0x1F ADD PUSH1 0x20 DUP1 SWAP2 DIV MUL PUSH1 0x20 ADD PUSH1 0x40 MLOAD SWAP1 DUP2 ADD PUSH1 0x40 MSTORE DUP1 SWAP3 SWAP2 SWAP1 DUP2 DUP2 MSTORE PUSH1 0x20 ADD DUP3 DUP1 SLOAD PUSH2 0x71A SWAP1 PUSH2 0x1062 JUMP JUMPDEST DUP1 ISZERO PUSH2 0x765 JUMPI DUP1 PUSH1 0x1F LT PUSH2 0x73C JUMPI PUSH2 0x100 DUP1 DUP4 SLOAD DIV MUL DUP4 MSTORE SWAP2 PUSH1 0x20 ADD SWAP2 PUSH2 0x765 JUMP JUMPDEST DUP3 ADD SWAP2 SWAP1 PUSH0 MSTORE PUSH1 0x20 PUSH0 KECCAK256 SWAP1 JUMPDEST DUP2 SLOAD DUP2 MSTORE SWAP1 PUSH1 0x1 ADD SWAP1 PUSH1 0x20 ADD DUP1 DUP4 GT PUSH2 0x748 JUMPI DUP3 SWAP1 SUB PUSH1 0x1F AND DUP3 ADD SWAP2 JUMPDEST POP POP POP POP POP SWAP1 DUP1 PUSH1 0x3 ADD DUP1 SLOAD PUSH2 0x77A SWAP1 PUSH2 0x1062 JUMP JUMPDEST DUP1 PUSH1 0x1F ADD PUSH1 0x20 DUP1 SWAP2 DIV MUL PUSH1 0x20 ADD PUSH1 0x40 MLOAD SWAP1 DUP2 ADD PUSH1 0x40 MSTORE DUP1 SWAP3 SWAP2 SWAP1 DUP2 DUP2 MSTORE PUSH1 0x20 ADD DUP3 DUP1 SLOAD PUSH2 0x7A6 SWAP1 PUSH2 0x1062 JUMP JUMPDEST DUP1 ISZERO PUSH2 0x7F1 JUMPI DUP1 PUSH1 0x1F LT PUSH2 0x7C8 JUMPI PUSH2 0x100 DUP1 DUP4 SLOAD DIV MUL DUP4 MSTORE SWAP2 PUSH1 0x20 ADD SWAP2 PUSH2 0x7F1 JUMP JUMPDEST DUP3 ADD SWAP2 SWAP1 PUSH0 MSTORE PUSH1 0x20 PUSH0 KECCAK256 SWAP1 JUMPDEST DUP2 SLOAD DUP2 MSTORE SWAP1 PUSH1 0x1 ADD SWAP1 PUSH1 0x20 ADD DUP1 DUP4 GT PUSH2 0x7D4 JUMPI DUP3 SWAP1 SUB PUSH1 0x1F AND DUP3 ADD SWAP2 JUMPDEST POP POP POP POP POP SWAP1 DUP1 PUSH1 0x4 ADD SLOAD SWAP1 DUP1 PUSH1 0x5 ADD SLOAD SWAP1 DUP1 PUSH1 0x6 ADD SLOAD SWAP1 POP DUP8 JUMP JUMPDEST PUSH0 PUSH1 0x20 MSTORE DUP1 PUSH0 MSTORE PUSH1 0x40 PUSH0 KECCAK256 PUSH0 SWAP2 POP SLOAD SWAP1 PUSH2 0x100 EXP SWAP1 DIV PUSH20 0xFFFFFFFFFFFFFFFFFFFFFFFFFFFFFFFFFFFFFFFF AND DUP2 JUMP JUMPDEST PUSH2 0x8D2 DUP2 PUSH1 0x40 MLOAD PUSH1 0x24 ADD PUSH2 0x850 SWAP2 SWAP1 PUSH2 0x1396 JUMP JUMPDEST PUSH1 0x40 MLOAD PUSH1 0x20 DUP2 DUP4 SUB SUB DUP2 MSTORE SWAP1 PUSH1 0x40 MSTORE PUSH32 0xF82C50F100000000000000000000000000000000000000000000000000000000 PUSH28 0xFFFFFFFFFFFFFFFFFFFFFFFFFFFFFFFFFFFFFFFFFFFFFFFFFFFFFFFF NOT AND PUSH1 0x20 DUP3 ADD DUP1 MLOAD PUSH28 0xFFFFFFFFFFFFFFFFFFFFFFFFFFFFFFFFFFFFFFFFFFFFFFFFFFFFFFFF DUP4 DUP2 DUP4 AND OR DUP4 MSTORE POP POP POP POP PUSH2 0x971 JUMP JUMPDEST POP JUMP JUMPDEST PUSH2 0x96D DUP3 DUP3 PUSH1 0x40 MLOAD PUSH1 0x24 ADD PUSH2 0x8EB SWAP3 SWAP2 SWAP1 PUSH2 0x13AF JUMP JUMPDEST PUSH1 0x40 MLOAD PUSH1 0x20 DUP2 DUP4 SUB SUB DUP2 MSTORE SWAP1 PUSH1 0x40 MSTORE PUSH32 0xB60E72CC00000000000000000000000000000000000000000000000000000000 PUSH28 0xFFFFFFFFFFFFFFFFFFFFFFFFFFFFFFFFFFFFFFFFFFFFFFFFFFFFFFFF NOT AND PUSH1 0x20 DUP3 ADD DUP1 MLOAD PUSH28 0xFFFFFFFFFFFFFFFFFFFFFFFFFFFFFFFFFFFFFFFFFFFFFFFFFFFFFFFF DUP4 DUP2 DUP4 AND OR DUP4 MSTORE POP POP POP POP PUSH2 0x971 JUMP JUMPDEST POP POP JUMP JUMPDEST PUSH2 0x988 DUP2 PUSH2 0x980 PUSH2 0x98B PUSH2 0x9AA JUMP JUMPDEST PUSH4 0xFFFFFFFF AND JUMP JUMPDEST POP JUMP JUMPDEST PUSH0 PUSH11 0x636F6E736F6C652E6C6F67 SWAP1 POP PUSH0 DUP1 DUP4 MLOAD PUSH1 0x20 DUP6 ADD DUP5 GAS STATICCALL POP POP POP JUMP JUMPDEST PUSH2 0x9B5 DUP2 SWAP1 POP SWAP2 SWAP1 POP JUMP JUMPDEST PUSH2 0x9BD PUSH2 0x13DD JUMP JUMPDEST JUMP JUMPDEST PUSH0 PUSH1 0x40 MLOAD SWAP1 POP SWAP1 JUMP JUMPDEST PUSH0 DUP1 REVERT JUMPDEST PUSH0 DUP1 REVERT JUMPDEST PUSH0 DUP1 REVERT JUMPDEST PUSH0 DUP1 REVERT JUMPDEST PUSH0 PUSH1 0x1F NOT PUSH1 0x1F DUP4 ADD AND SWAP1 POP SWAP2 SWAP1 POP JUMP JUMPDEST PUSH32 0x4E487B7100000000000000000000000000000000000000000000000000000000 PUSH0 MSTORE PUSH1 0x41 PUSH1 0x4 MSTORE PUSH1 0x24 PUSH0 REVERT JUMPDEST PUSH2 0xA1E DUP3 PUSH2 0x9D8 JUMP JUMPDEST DUP2 ADD DUP2 DUP2 LT PUSH8 0xFFFFFFFFFFFFFFFF DUP3 GT OR ISZERO PUSH2 0xA3D JUMPI PUSH2 0xA3C PUSH2 0x9E8 JUMP JUMPDEST JUMPDEST DUP1 PUSH1 0x40 MSTORE POP POP POP JUMP JUMPDEST PUSH0 PUSH2 0xA4F PUSH2 0x9BF JUMP JUMPDEST SWAP1 POP PUSH2 0xA5B DUP3 DUP3 PUSH2 0xA15 JUMP JUMPDEST SWAP2 SWAP1 POP JUMP JUMPDEST PUSH0 PUSH8 0xFFFFFFFFFFFFFFFF DUP3 GT ISZERO PUSH2 0xA7A JUMPI PUSH2 0xA79 PUSH2 0x9E8 JUMP JUMPDEST JUMPDEST PUSH2 0xA83 DUP3 PUSH2 0x9D8 JUMP JUMPDEST SWAP1 POP PUSH1 0x20 DUP2 ADD SWAP1 POP SWAP2 SWAP1 POP JUMP JUMPDEST DUP3 DUP2 DUP4 CALLDATACOPY PUSH0 DUP4 DUP4 ADD MSTORE POP POP POP JUMP JUMPDEST PUSH0 PUSH2 0xAB0 PUSH2 0xAAB DUP5 PUSH2 0xA60 JUMP JUMPDEST PUSH2 0xA46 JUMP JUMPDEST SWAP1 POP DUP3 DUP2 MSTORE PUSH1 0x20 DUP2 ADD DUP5 DUP5 DUP5 ADD GT ISZERO PUSH2 0xACC JUMPI PUSH2 0xACB PUSH2 0x9D4 JUMP JUMPDEST JUMPDEST PUSH2 0xAD7 DUP5 DUP3 DUP6 PUSH2 0xA90 JUMP JUMPDEST POP SWAP4 SWAP3 POP POP POP JUMP JUMPDEST PUSH0 DUP3 PUSH1 0x1F DUP4 ADD SLT PUSH2 0xAF3 JUMPI PUSH2 0xAF2 PUSH2 0x9D0 JUMP JUMPDEST JUMPDEST DUP2 CALLDATALOAD PUSH2 0xB03 DUP5 DUP3 PUSH1 0x20 DUP7 ADD PUSH2 0xA9E JUMP JUMPDEST SWAP2 POP POP SWAP3 SWAP2 POP POP JUMP JUMPDEST PUSH0 DUP2 SWAP1 POP SWAP2 SWAP1 POP JUMP JUMPDEST PUSH2 0xB1E DUP2 PUSH2 0xB0C JUMP JUMPDEST DUP2 EQ PUSH2 0xB28 JUMPI PUSH0 DUP1 REVERT JUMPDEST POP JUMP JUMPDEST PUSH0 DUP2 CALLDATALOAD SWAP1 POP PUSH2 0xB39 DUP2 PUSH2 0xB15 JUMP JUMPDEST SWAP3 SWAP2 POP POP JUMP JUMPDEST PUSH0 DUP1 PUSH0 DUP1 PUSH0 DUP1 PUSH0 PUSH1 0xE0 DUP9 DUP11 SUB SLT ISZERO PUSH2 0xB5A JUMPI PUSH2 0xB59 PUSH2 0x9C8 JUMP JUMPDEST JUMPDEST PUSH0 DUP9 ADD CALLDATALOAD PUSH8 0xFFFFFFFFFFFFFFFF DUP2 GT ISZERO PUSH2 0xB77 JUMPI PUSH2 0xB76 PUSH2 0x9CC JUMP JUMPDEST JUMPDEST PUSH2 0xB83 DUP11 DUP3 DUP12 ADD PUSH2 0xADF JUMP JUMPDEST SWAP8 POP POP PUSH1 0x20 DUP9 ADD CALLDATALOAD PUSH8 0xFFFFFFFFFFFFFFFF DUP2 GT ISZERO PUSH2 0xBA4 JUMPI PUSH2 0xBA3 PUSH2 0x9CC JUMP JUMPDEST JUMPDEST PUSH2 0xBB0 DUP11 DUP3 DUP12 ADD PUSH2 0xADF JUMP JUMPDEST SWAP7 POP POP PUSH1 0x40 DUP9 ADD CALLDATALOAD PUSH8 0xFFFFFFFFFFFFFFFF DUP2 GT ISZERO PUSH2 0xBD1 JUMPI PUSH2 0xBD0 PUSH2 0x9CC JUMP JUMPDEST JUMPDEST PUSH2 0xBDD DUP11 DUP3 DUP12 ADD PUSH2 0xADF JUMP JUMPDEST SWAP6 POP POP PUSH1 0x60 DUP9 ADD CALLDATALOAD PUSH8 0xFFFFFFFFFFFFFFFF DUP2 GT ISZERO PUSH2 0xBFE JUMPI PUSH2 0xBFD PUSH2 0x9CC JUMP JUMPDEST JUMPDEST PUSH2 0xC0A DUP11 DUP3 DUP12 ADD PUSH2 0xADF JUMP JUMPDEST SWAP5 POP POP PUSH1 0x80 PUSH2 0xC1B DUP11 DUP3 DUP12 ADD PUSH2 0xB2B JUMP JUMPDEST SWAP4 POP POP PUSH1 0xA0 PUSH2 0xC2C DUP11 DUP3 DUP12 ADD PUSH2 0xB2B JUMP JUMPDEST SWAP3 POP POP PUSH1 0xC0 PUSH2 0xC3D DUP11 DUP3 DUP12 ADD PUSH2 0xB2B JUMP JUMPDEST SWAP2 POP POP SWAP3 SWAP6 SWAP9 SWAP2 SWAP5 SWAP8 POP SWAP3 SWAP6 POP JUMP JUMPDEST PUSH0 DUP2 MLOAD SWAP1 POP SWAP2 SWAP1 POP JUMP JUMPDEST PUSH0 DUP3 DUP3 MSTORE PUSH1 0x20 DUP3 ADD SWAP1 POP SWAP3 SWAP2 POP POP JUMP JUMPDEST PUSH0 DUP2 SWAP1 POP PUSH1 0x20 DUP3 ADD SWAP1 POP SWAP2 SWAP1 POP JUMP JUMPDEST PUSH0 DUP2 MLOAD SWAP1 POP SWAP2 SWAP1 POP JUMP JUMPDEST PUSH0 DUP3 DUP3 MSTORE PUSH1 0x20 DUP3 ADD SWAP1 POP SWAP3 SWAP2 POP POP JUMP JUMPDEST DUP3 DUP2 DUP4 MCOPY PUSH0 DUP4 DUP4 ADD MSTORE POP POP POP JUMP JUMPDEST PUSH0 PUSH2 0xCA7 DUP3 PUSH2 0xC75 JUMP JUMPDEST PUSH2 0xCB1 DUP2 DUP6 PUSH2 0xC7F JUMP JUMPDEST SWAP4 POP PUSH2 0xCC1 DUP2 DUP6 PUSH1 0x20 DUP7 ADD PUSH2 0xC8F JUMP JUMPDEST PUSH2 0xCCA DUP2 PUSH2 0x9D8 JUMP JUMPDEST DUP5 ADD SWAP2 POP POP SWAP3 SWAP2 POP POP JUMP JUMPDEST PUSH2 0xCDE DUP2 PUSH2 0xB0C JUMP JUMPDEST DUP3 MSTORE POP POP JUMP JUMPDEST PUSH0 PUSH1 0xE0 DUP4 ADD PUSH0 DUP4 ADD MLOAD DUP5 DUP3 SUB PUSH0 DUP7 ADD MSTORE PUSH2 0xCFE DUP3 DUP3 PUSH2 0xC9D JUMP JUMPDEST SWAP2 POP POP PUSH1 0x20 DUP4 ADD MLOAD DUP5 DUP3 SUB PUSH1 0x20 DUP7 ADD MSTORE PUSH2 0xD18 DUP3 DUP3 PUSH2 0xC9D JUMP JUMPDEST SWAP2 POP POP PUSH1 0x40 DUP4 ADD MLOAD DUP5 DUP3 SUB PUSH1 0x40 DUP7 ADD MSTORE PUSH2 0xD32 DUP3 DUP3 PUSH2 0xC9D JUMP JUMPDEST SWAP2 POP POP PUSH1 0x60 DUP4 ADD MLOAD DUP5 DUP3 SUB PUSH1 0x60 DUP7 ADD MSTORE PUSH2 0xD4C DUP3 DUP3 PUSH2 0xC9D JUMP JUMPDEST SWAP2 POP POP PUSH1 0x80 DUP4 ADD MLOAD PUSH2 0xD61 PUSH1 0x80 DUP7 ADD DUP3 PUSH2 0xCD5 JUMP JUMPDEST POP PUSH1 0xA0 DUP4 ADD MLOAD PUSH2 0xD74 PUSH1 0xA0 DUP7 ADD DUP3 PUSH2 0xCD5 JUMP JUMPDEST POP PUSH1 0xC0 DUP4 ADD MLOAD PUSH2 0xD87 PUSH1 0xC0 DUP7 ADD DUP3 PUSH2 0xCD5 JUMP JUMPDEST POP DUP1 SWAP2 POP POP SWAP3 SWAP2 POP POP JUMP JUMPDEST PUSH0 PUSH2 0xD9D DUP4 DUP4 PUSH2 0xCE4 JUMP JUMPDEST SWAP1 POP SWAP3 SWAP2 POP POP JUMP JUMPDEST PUSH0 PUSH1 0x20 DUP3 ADD SWAP1 POP SWAP2 SWAP1 POP JUMP JUMPDEST PUSH0 PUSH2 0xDBB DUP3 PUSH2 0xC4C JUMP JUMPDEST PUSH2 0xDC5 DUP2 DUP6 PUSH2 0xC56 JUMP JUMPDEST SWAP4 POP DUP4 PUSH1 0x20 DUP3 MUL DUP6 ADD PUSH2 0xDD7 DUP6 PUSH2 0xC66 JUMP JUMPDEST DUP1 PUSH0 JUMPDEST DUP6 DUP2 LT ISZERO PUSH2 0xE12 JUMPI DUP5 DUP5 SUB DUP10 MSTORE DUP2 MLOAD PUSH2 0xDF3 DUP6 DUP3 PUSH2 0xD92 JUMP JUMPDEST SWAP5 POP PUSH2 0xDFE DUP4 PUSH2 0xDA5 JUMP JUMPDEST SWAP3 POP PUSH1 0x20 DUP11 ADD SWAP10 POP POP PUSH1 0x1 DUP2 ADD SWAP1 POP PUSH2 0xDDA JUMP JUMPDEST POP DUP3 SWAP8 POP DUP8 SWAP6 POP POP POP POP POP POP SWAP3 SWAP2 POP POP JUMP JUMPDEST PUSH0 PUSH1 0x20 DUP3 ADD SWAP1 POP DUP2 DUP2 SUB PUSH0 DUP4 ADD MSTORE PUSH2 0xE3C DUP2 DUP5 PUSH2 0xDB1 JUMP JUMPDEST SWAP1 POP SWAP3 SWAP2 POP POP JUMP JUMPDEST PUSH0 PUSH1 0x20 DUP3 DUP5 SUB SLT ISZERO PUSH2 0xE59 JUMPI PUSH2 0xE58 PUSH2 0x9C8 JUMP JUMPDEST JUMPDEST PUSH0 PUSH2 0xE66 DUP5 DUP3 DUP6 ADD PUSH2 0xB2B JUMP JUMPDEST SWAP2 POP POP SWAP3 SWAP2 POP POP JUMP JUMPDEST PUSH0 DUP3 DUP3 MSTORE PUSH1 0x20 DUP3 ADD SWAP1 POP SWAP3 SWAP2 POP POP JUMP JUMPDEST PUSH0 PUSH2 0xE89 DUP3 PUSH2 0xC75 JUMP JUMPDEST PUSH2 0xE93 DUP2 DUP6 PUSH2 0xE6F JUMP JUMPDEST SWAP4 POP PUSH2 0xEA3 DUP2 DUP6 PUSH1 0x20 DUP7 ADD PUSH2 0xC8F JUMP JUMPDEST PUSH2 0xEAC DUP2 PUSH2 0x9D8 JUMP JUMPDEST DUP5 ADD SWAP2 POP POP SWAP3 SWAP2 POP POP JUMP JUMPDEST PUSH2 0xEC0 DUP2 PUSH2 0xB0C JUMP JUMPDEST DUP3 MSTORE POP POP JUMP JUMPDEST PUSH0 PUSH1 0xE0 DUP3 ADD SWAP1 POP DUP2 DUP2 SUB PUSH0 DUP4 ADD MSTORE PUSH2 0xEDE DUP2 DUP11 PUSH2 0xE7F JUMP JUMPDEST SWAP1 POP DUP2 DUP2 SUB PUSH1 0x20 DUP4 ADD MSTORE PUSH2 0xEF2 DUP2 DUP10 PUSH2 0xE7F JUMP JUMPDEST SWAP1 POP DUP2 DUP2 SUB PUSH1 0x40 DUP4 ADD MSTORE PUSH2 0xF06 DUP2 DUP9 PUSH2 0xE7F JUMP JUMPDEST SWAP1 POP DUP2 DUP2 SUB PUSH1 0x60 DUP4 ADD MSTORE PUSH2 0xF1A DUP2 DUP8 PUSH2 0xE7F JUMP JUMPDEST SWAP1 POP PUSH2 0xF29 PUSH1 0x80 DUP4 ADD DUP7 PUSH2 0xEB7 JUMP JUMPDEST PUSH2 0xF36 PUSH1 0xA0 DUP4 ADD DUP6 PUSH2 0xEB7 JUMP JUMPDEST PUSH2 0xF43 PUSH1 0xC0 DUP4 ADD DUP5 PUSH2 0xEB7 JUMP JUMPDEST SWAP9 SWAP8 POP POP POP POP POP POP POP POP JUMP JUMPDEST PUSH0 PUSH20 0xFFFFFFFFFFFFFFFFFFFFFFFFFFFFFFFFFFFFFFFF DUP3 AND SWAP1 POP SWAP2 SWAP1 POP JUMP JUMPDEST PUSH0 PUSH2 0xF78 DUP3 PUSH2 0xF4F JUMP JUMPDEST SWAP1 POP SWAP2 SWAP1 POP JUMP JUMPDEST PUSH2 0xF88 DUP2 PUSH2 0xF6E JUMP JUMPDEST DUP3 MSTORE POP POP JUMP JUMPDEST PUSH0 PUSH1 0x20 DUP3 ADD SWAP1 POP PUSH2 0xFA1 PUSH0 DUP4 ADD DUP5 PUSH2 0xF7F JUMP JUMPDEST SWAP3 SWAP2 POP POP JUMP JUMPDEST PUSH32 0x446561646C696E65206D7573742062652067726561746572207468616E206375 PUSH0 DUP3 ADD MSTORE PUSH32 0x7272656E74206461746500000000000000000000000000000000000000000000 PUSH1 0x20 DUP3 ADD MSTORE POP JUMP JUMPDEST PUSH0 PUSH2 0x1001 PUSH1 0x2A DUP4 PUSH2 0xE6F JUMP JUMPDEST SWAP2 POP PUSH2 0x100C DUP3 PUSH2 0xFA7 JUMP JUMPDEST PUSH1 0x40 DUP3 ADD SWAP1 POP SWAP2 SWAP1 POP JUMP JUMPDEST PUSH0 PUSH1 0x20 DUP3 ADD SWAP1 POP DUP2 DUP2 SUB PUSH0 DUP4 ADD MSTORE PUSH2 0x102E DUP2 PUSH2 0xFF5 JUMP JUMPDEST SWAP1 POP SWAP2 SWAP1 POP JUMP JUMPDEST PUSH32 0x4E487B7100000000000000000000000000000000000000000000000000000000 PUSH0 MSTORE PUSH1 0x22 PUSH1 0x4 MSTORE PUSH1 0x24 PUSH0 REVERT JUMPDEST PUSH0 PUSH1 0x2 DUP3 DIV SWAP1 POP PUSH1 0x1 DUP3 AND DUP1 PUSH2 0x1079 JUMPI PUSH1 0x7F DUP3 AND SWAP2 POP JUMPDEST PUSH1 0x20 DUP3 LT DUP2 SUB PUSH2 0x108C JUMPI PUSH2 0x108B PUSH2 0x1035 JUMP JUMPDEST JUMPDEST POP SWAP2 SWAP1 POP JUMP JUMPDEST PUSH0 DUP2 SWAP1 POP DUP2 PUSH0 MSTORE PUSH1 0x20 PUSH0 KECCAK256 SWAP1 POP SWAP2 SWAP1 POP JUMP JUMPDEST PUSH0 PUSH1 0x20 PUSH1 0x1F DUP4 ADD DIV SWAP1 POP SWAP2 SWAP1 POP JUMP JUMPDEST PUSH0 DUP3 DUP3 SHL SWAP1 POP SWAP3 SWAP2 POP POP JUMP JUMPDEST PUSH0 PUSH1 0x8 DUP4 MUL PUSH2 0x10EE PUSH32 0xFFFFFFFFFFFFFFFFFFFFFFFFFFFFFFFFFFFFFFFFFFFFFFFFFFFFFFFFFFFFFFFF DUP3 PUSH2 0x10B3 JUMP JUMPDEST PUSH2 0x10F8 DUP7 DUP4 PUSH2 0x10B3 JUMP JUMPDEST SWAP6 POP DUP1 NOT DUP5 AND SWAP4 POP DUP1 DUP7 AND DUP5 OR SWAP3 POP POP POP SWAP4 SWAP3 POP POP POP JUMP JUMPDEST PUSH0 DUP2 SWAP1 POP SWAP2 SWAP1 POP JUMP JUMPDEST PUSH0 PUSH2 0x1133 PUSH2 0x112E PUSH2 0x1129 DUP5 PUSH2 0xB0C JUMP JUMPDEST PUSH2 0x1110 JUMP JUMPDEST PUSH2 0xB0C JUMP JUMPDEST SWAP1 POP SWAP2 SWAP1 POP JUMP JUMPDEST PUSH0 DUP2 SWAP1 POP SWAP2 SWAP1 POP JUMP JUMPDEST PUSH2 0x114C DUP4 PUSH2 0x1119 JUMP JUMPDEST PUSH2 0x1160 PUSH2 0x1158 DUP3 PUSH2 0x113A JUMP JUMPDEST DUP5 DUP5 SLOAD PUSH2 0x10BF JUMP JUMPDEST DUP3 SSTORE POP POP POP POP JUMP JUMPDEST PUSH0 SWAP1 JUMP JUMPDEST PUSH2 0x1174 PUSH2 0x1168 JUMP JUMPDEST PUSH2 0x117F DUP2 DUP5 DUP5 PUSH2 0x1143 JUMP JUMPDEST POP POP POP JUMP JUMPDEST JUMPDEST DUP2 DUP2 LT ISZERO PUSH2 0x11A2 JUMPI PUSH2 0x1197 PUSH0 DUP3 PUSH2 0x116C JUMP JUMPDEST PUSH1 0x1 DUP2 ADD SWAP1 POP PUSH2 0x1185 JUMP JUMPDEST POP POP JUMP JUMPDEST PUSH1 0x1F DUP3 GT ISZERO PUSH2 0x11E7 JUMPI PUSH2 0x11B8 DUP2 PUSH2 0x1092 JUMP JUMPDEST PUSH2 0x11C1 DUP5 PUSH2 0x10A4 JUMP JUMPDEST DUP2 ADD PUSH1 0x20 DUP6 LT ISZERO PUSH2 0x11D0 JUMPI DUP2 SWAP1 POP JUMPDEST PUSH2 0x11E4 PUSH2 0x11DC DUP6 PUSH2 0x10A4 JUMP JUMPDEST DUP4 ADD DUP3 PUSH2 0x1184 JUMP JUMPDEST POP POP JUMPDEST POP POP POP JUMP JUMPDEST PUSH0 DUP3 DUP3 SHR SWAP1 POP SWAP3 SWAP2 POP POP JUMP JUMPDEST PUSH0 PUSH2 0x1207 PUSH0 NOT DUP5 PUSH1 0x8 MUL PUSH2 0x11EC JUMP JUMPDEST NOT DUP1 DUP4 AND SWAP2 POP POP SWAP3 SWAP2 POP POP JUMP JUMPDEST PUSH0 PUSH2 0x121F DUP4 DUP4 PUSH2 0x11F8 JUMP JUMPDEST SWAP2 POP DUP3 PUSH1 0x2 MUL DUP3 OR SWAP1 POP SWAP3 SWAP2 POP POP JUMP JUMPDEST PUSH2 0x1238 DUP3 PUSH2 0xC75 JUMP JUMPDEST PUSH8 0xFFFFFFFFFFFFFFFF DUP2 GT ISZERO PUSH2 0x1251 JUMPI PUSH2 0x1250 PUSH2 0x9E8 JUMP JUMPDEST JUMPDEST PUSH2 0x125B DUP3 SLOAD PUSH2 0x1062 JUMP JUMPDEST PUSH2 0x1266 DUP3 DUP3 DUP6 PUSH2 0x11A6 JUMP JUMPDEST PUSH0 PUSH1 0x20 SWAP1 POP PUSH1 0x1F DUP4 GT PUSH1 0x1 DUP2 EQ PUSH2 0x1297 JUMPI PUSH0 DUP5 ISZERO PUSH2 0x1285 JUMPI DUP3 DUP8 ADD MLOAD SWAP1 POP JUMPDEST PUSH2 0x128F DUP6 DUP3 PUSH2 0x1214 JUMP JUMPDEST DUP7 SSTORE POP PUSH2 0x12F6 JUMP JUMPDEST PUSH1 0x1F NOT DUP5 AND PUSH2 0x12A5 DUP7 PUSH2 0x1092 JUMP JUMPDEST PUSH0 JUMPDEST DUP3 DUP2 LT ISZERO PUSH2 0x12CC JUMPI DUP5 DUP10 ADD MLOAD DUP3 SSTORE PUSH1 0x1 DUP3 ADD SWAP2 POP PUSH1 0x20 DUP6 ADD SWAP5 POP PUSH1 0x20 DUP2 ADD SWAP1 POP PUSH2 0x12A7 JUMP JUMPDEST DUP7 DUP4 LT ISZERO PUSH2 0x12E9 JUMPI DUP5 DUP10 ADD MLOAD PUSH2 0x12E5 PUSH1 0x1F DUP10 AND DUP3 PUSH2 0x11F8 JUMP JUMPDEST DUP4 SSTORE POP JUMPDEST PUSH1 0x1 PUSH1 0x2 DUP9 MUL ADD DUP9 SSTORE POP POP POP JUMPDEST POP POP POP POP POP POP JUMP JUMPDEST PUSH0 PUSH2 0x100 DUP3 ADD SWAP1 POP PUSH2 0x1312 PUSH0 DUP4 ADD DUP12 PUSH2 0xEB7 JUMP JUMPDEST DUP2 DUP2 SUB PUSH1 0x20 DUP4 ADD MSTORE PUSH2 0x1324 DUP2 DUP11 PUSH2 0xE7F JUMP JUMPDEST SWAP1 POP DUP2 DUP2 SUB PUSH1 0x40 DUP4 ADD MSTORE PUSH2 0x1338 DUP2 DUP10 PUSH2 0xE7F JUMP JUMPDEST SWAP1 POP DUP2 DUP2 SUB PUSH1 0x60 DUP4 ADD MSTORE PUSH2 0x134C DUP2 DUP9 PUSH2 0xE7F JUMP JUMPDEST SWAP1 POP DUP2 DUP2 SUB PUSH1 0x80 DUP4 ADD MSTORE PUSH2 0x1360 DUP2 DUP8 PUSH2 0xE7F JUMP JUMPDEST SWAP1 POP PUSH2 0x136F PUSH1 0xA0 DUP4 ADD DUP7 PUSH2 0xEB7 JUMP JUMPDEST PUSH2 0x137C PUSH1 0xC0 DUP4 ADD DUP6 PUSH2 0xEB7 JUMP JUMPDEST PUSH2 0x1389 PUSH1 0xE0 DUP4 ADD DUP5 PUSH2 0xEB7 JUMP JUMPDEST SWAP10 SWAP9 POP POP POP POP POP POP POP POP POP JUMP JUMPDEST PUSH0 PUSH1 0x20 DUP3 ADD SWAP1 POP PUSH2 0x13A9 PUSH0 DUP4 ADD DUP5 PUSH2 0xEB7 JUMP JUMPDEST SWAP3 SWAP2 POP POP JUMP JUMPDEST PUSH0 PUSH1 0x40 DUP3 ADD SWAP1 POP DUP2 DUP2 SUB PUSH0 DUP4 ADD MSTORE PUSH2 0x13C7 DUP2 DUP6 PUSH2 0xE7F JUMP JUMPDEST SWAP1 POP PUSH2 0x13D6 PUSH1 0x20 DUP4 ADD DUP5 PUSH2 0xEB7 JUMP JUMPDEST SWAP4 SWAP3 POP POP POP JUMP JUMPDEST PUSH32 0x4E487B7100000000000000000000000000000000000000000000000000000000 PUSH0 MSTORE PUSH1 0x51 PUSH1 0x4 MSTORE PUSH1 0x24 PUSH0 REVERT INVALID LOG2 PUSH5 0x6970667358 0x22 SLT KECCAK256 0xD5 STATICCALL 0xF6 0xE5 CREATE2 0xD6 INVALID LOG1 DUP3 0xCA ORIGIN JUMP 0x23 SELFBALANCE 0xDB 0x4B SWAP6 EXP PUSH18 0x5EA9ED2330F851525EF6A3F72464736F6C63 NUMBER STOP ADDMOD NOT STOP CALLER "
		},
		"gasEstimates": {
			"creation": {
				"codeDepositCost": "1036800",
				"executionCost": "1072",
				"totalCost": "1037872"
			},
			"external": {
				"contractTerms(uint256)": "infinite",
				"createTerm(string,string,string,string,uint256,uint256,uint256)": "infinite",
				"getContractTerms()": "infinite",
				"termsToOwner(uint256)": "2870"
			}
		},
		"methodIdentifiers": {
			"contractTerms(uint256)": "8a5e02f2",
			"createTerm(string,string,string,string,uint256,uint256,uint256)": "55bc7915",
			"getContractTerms()": "8566e12c",
			"termsToOwner(uint256)": "fba91e20"
		}
	},
	"abi": [
		{
			"anonymous": false,
			"inputs": [
				{
					"indexed": false,
					"internalType": "uint256",
					"name": "termId",
					"type": "uint256"
				},
				{
					"indexed": false,
					"internalType": "string",
					"name": "title",
					"type": "string"
				},
				{
					"indexed": false,
					"internalType": "string",
					"name": "description",
					"type": "string"
				},
				{
					"indexed": false,
					"internalType": "string",
					"name": "specifications",
					"type": "string"
				},
				{
					"indexed": false,
					"internalType": "string",
					"name": "materialType",
					"type": "string"
				},
				{
					"indexed": false,
					"internalType": "uint256",
					"name": "budget",
					"type": "uint256"
				},
				{
					"indexed": false,
					"internalType": "uint256",
					"name": "_quantity",
					"type": "uint256"
				},
				{
					"indexed": false,
					"internalType": "uint256",
					"name": "deadline",
					"type": "uint256"
				}
			],
			"name": "NewTerm",
			"type": "event"
		},
		{
			"inputs": [
				{
					"internalType": "uint256",
					"name": "",
					"type": "uint256"
				}
			],
			"name": "contractTerms",
			"outputs": [
				{
					"internalType": "string",
					"name": "title",
					"type": "string"
				},
				{
					"internalType": "string",
					"name": "description",
					"type": "string"
				},
				{
					"internalType": "string",
					"name": "specifications",
					"type": "string"
				},
				{
					"internalType": "string",
					"name": "materialType",
					"type": "string"
				},
				{
					"internalType": "uint256",
					"name": "budget",
					"type": "uint256"
				},
				{
					"internalType": "uint256",
					"name": "quantity",
					"type": "uint256"
				},
				{
					"internalType": "uint256",
					"name": "deadline",
					"type": "uint256"
				}
			],
			"stateMutability": "view",
			"type": "function"
		},
		{
			"inputs": [
				{
					"internalType": "string",
					"name": "_title",
					"type": "string"
				},
				{
					"internalType": "string",
					"name": "_description",
					"type": "string"
				},
				{
					"internalType": "string",
					"name": "_specifications",
					"type": "string"
				},
				{
					"internalType": "string",
					"name": "_materialType",
					"type": "string"
				},
				{
					"internalType": "uint256",
					"name": "_budget",
					"type": "uint256"
				},
				{
					"internalType": "uint256",
					"name": "_quantity",
					"type": "uint256"
				},
				{
					"internalType": "uint256",
					"name": "_deadline",
					"type": "uint256"
				}
			],
			"name": "createTerm",
			"outputs": [],
			"stateMutability": "nonpayable",
			"type": "function"
		},
		{
			"inputs": [],
			"name": "getContractTerms",
			"outputs": [
				{
					"components": [
						{
							"internalType": "string",
							"name": "title",
							"type": "string"
						},
						{
							"internalType": "string",
							"name": "description",
							"type": "string"
						},
						{
							"internalType": "string",
							"name": "specifications",
							"type": "string"
						},
						{
							"internalType": "string",
							"name": "materialType",
							"type": "string"
						},
						{
							"internalType": "uint256",
							"name": "budget",
							"type": "uint256"
						},
						{
							"internalType": "uint256",
							"name": "quantity",
							"type": "uint256"
						},
						{
							"internalType": "uint256",
							"name": "deadline",
							"type": "uint256"
						}
					],
					"internalType": "struct BepsTender.ContractTerm[]",
					"name": "",
					"type": "tuple[]"
				}
			],
			"stateMutability": "view",
			"type": "function"
		},
		{
			"inputs": [
				{
					"internalType": "uint256",
					"name": "",
					"type": "uint256"
				}
			],
			"name": "termsToOwner",
			"outputs": [
				{
					"internalType": "address",
					"name": "",
					"type": "address"
				}
			],
			"stateMutability": "view",
			"type": "function"
		}
	]
}