{
  "_format": "hh-sol-artifact-1",
  "contractName": "BepsTender",
  "sourceName": "contracts/BepsTender.sol",
  "abi": [
    {
      "anonymous": false,
      "inputs": [
        {
          "indexed": true,
          "internalType": "uint256",
          "name": "termId",
          "type": "uint256"
        },
        {
          "indexed": false,
          "internalType": "string",
          "name": "title",
          "type": "string"
        },
        {
          "indexed": false,
          "internalType": "string",
          "name": "description",
          "type": "string"
        },
        {
          "indexed": false,
          "internalType": "string",
          "name": "specifications",
          "type": "string"
        },
        {
          "indexed": false,
          "internalType": "string",
          "name": "materialType",
          "type": "string"
        },
        {
          "indexed": false,
          "internalType": "uint256",
          "name": "budget",
          "type": "uint256"
        },
        {
          "indexed": false,
          "internalType": "uint256",
          "name": "quantity",
          "type": "uint256"
        },
        {
          "indexed": false,
          "internalType": "uint256",
          "name": "deadline",
          "type": "uint256"
        }
      ],
      "name": "NewTerm",
      "type": "event"
    },
    {
      "inputs": [
        {
          "internalType": "uint256",
          "name": "_id",
          "type": "uint256"
        }
      ],
      "name": "applyForContract",
      "outputs": [],
      "stateMutability": "nonpayable",
      "type": "function"
    },
    {
      "inputs": [
        {
          "internalType": "uint256",
          "name": "",
          "type": "uint256"
        }
      ],
      "name": "contractTerms",
      "outputs": [
        {
          "internalType": "string",
          "name": "title",
          "type": "string"
        },
        {
          "internalType": "string",
          "name": "description",
          "type": "string"
        },
        {
          "internalType": "string",
          "name": "specifications",
          "type": "string"
        },
        {
          "internalType": "string",
          "name": "materialType",
          "type": "string"
        },
        {
          "internalType": "uint256",
          "name": "budget",
          "type": "uint256"
        },
        {
          "internalType": "uint256",
          "name": "quantity",
          "type": "uint256"
        },
        {
          "internalType": "uint256",
          "name": "deadline",
          "type": "uint256"
        }
      ],
      "stateMutability": "view",
      "type": "function"
    },
    {
      "inputs": [
        {
          "internalType": "string",
          "name": "_title",
          "type": "string"
        },
        {
          "internalType": "string",
          "name": "_description",
          "type": "string"
        },
        {
          "internalType": "string",
          "name": "_specifications",
          "type": "string"
        },
        {
          "internalType": "string",
          "name": "_materialType",
          "type": "string"
        },
        {
          "internalType": "uint256",
          "name": "_budget",
          "type": "uint256"
        },
        {
          "internalType": "uint256",
          "name": "_quantity",
          "type": "uint256"
        },
        {
          "internalType": "uint256",
          "name": "_deadline",
          "type": "uint256"
        }
      ],
      "name": "createContract",
      "outputs": [],
      "stateMutability": "nonpayable",
      "type": "function"
    },
    {
      "inputs": [
        {
          "internalType": "uint256",
          "name": "_id",
          "type": "uint256"
        }
      ],
      "name": "getContractById",
      "outputs": [
        {
          "components": [
            {
              "internalType": "string",
              "name": "title",
              "type": "string"
            },
            {
              "internalType": "string",
              "name": "description",
              "type": "string"
            },
            {
              "internalType": "string",
              "name": "specifications",
              "type": "string"
            },
            {
              "internalType": "string",
              "name": "materialType",
              "type": "string"
            },
            {
              "internalType": "uint256",
              "name": "budget",
              "type": "uint256"
            },
            {
              "internalType": "uint256",
              "name": "quantity",
              "type": "uint256"
            },
            {
              "internalType": "uint256",
              "name": "deadline",
              "type": "uint256"
            }
          ],
          "internalType": "struct BepsTender.ContractTerm",
          "name": "",
          "type": "tuple"
        }
      ],
      "stateMutability": "view",
      "type": "function"
    },
    {
      "inputs": [],
      "name": "getContracts",
      "outputs": [
        {
          "components": [
            {
              "internalType": "string",
              "name": "title",
              "type": "string"
            },
            {
              "internalType": "string",
              "name": "description",
              "type": "string"
            },
            {
              "internalType": "string",
              "name": "specifications",
              "type": "string"
            },
            {
              "internalType": "string",
              "name": "materialType",
              "type": "string"
            },
            {
              "internalType": "uint256",
              "name": "budget",
              "type": "uint256"
            },
            {
              "internalType": "uint256",
              "name": "quantity",
              "type": "uint256"
            },
            {
              "internalType": "uint256",
              "name": "deadline",
              "type": "uint256"
            }
          ],
          "internalType": "struct BepsTender.ContractTerm[]",
          "name": "",
          "type": "tuple[]"
        }
      ],
      "stateMutability": "view",
      "type": "function"
    },
    {
      "inputs": [
        {
          "internalType": "uint256",
          "name": "_id",
          "type": "uint256"
        }
      ],
      "name": "selectSupplier",
      "outputs": [],
      "stateMutability": "nonpayable",
      "type": "function"
    },
    {
      "inputs": [
        {
          "internalType": "uint256",
          "name": "",
          "type": "uint256"
        },
        {
          "internalType": "uint256",
          "name": "",
          "type": "uint256"
        }
      ],
      "name": "termSuppliers",
      "outputs": [
        {
          "internalType": "address",
          "name": "",
          "type": "address"
        }
      ],
      "stateMutability": "view",
      "type": "function"
    },
    {
      "inputs": [
        {
          "internalType": "uint256",
          "name": "",
          "type": "uint256"
        }
      ],
      "name": "termWinner",
      "outputs": [
        {
          "internalType": "address",
          "name": "",
          "type": "address"
        }
      ],
      "stateMutability": "view",
      "type": "function"
    },
    {
      "inputs": [
        {
          "internalType": "uint256",
          "name": "",
          "type": "uint256"
        }
      ],
      "name": "termsToOwner",
      "outputs": [
        {
          "internalType": "address",
          "name": "",
          "type": "address"
        }
      ],
      "stateMutability": "view",
      "type": "function"
    }
  ],
  "bytecode": "0x608060405234801561001057600080fd5b506119b2806100206000396000f3fe608060405234801561001057600080fd5b50600436106100935760003560e01c80639cfaa0b1116100665780639cfaa0b114610136578063aad2eaaf14610166578063c3a2a93a14610182578063d9f1d56d146101a0578063fba91e20146101d057610093565b80633e66a741146100985780638a5e02f2146100b45780638ba9ac6f146100ea57806393884b731461011a575b600080fd5b6100b260048036038101906100ad9190610e76565b610200565b005b6100ce60048036038101906100c99190610e76565b61029c565b6040516100e19796959493929190610f42565b60405180910390f35b61010460048036038101906100ff9190610e76565b61050e565b60405161011191906110d7565b60405180910390f35b610134600480360381019061012f919061122e565b6107f7565b005b610150600480360381019061014b9190610e76565b6109b8565b60405161015d9190611381565b60405180910390f35b610180600480360381019061017b9190610e76565b6109eb565b005b61018a610aa9565b604051610197919061150f565b60405180910390f35b6101ba60048036038101906101b59190611531565b610d6e565b6040516101c79190611381565b60405180910390f35b6101ea60048036038101906101e59190610e76565b610dbc565b6040516101f79190611381565b60405180910390f35b6003805490508110610247576040517f08c379a000000000000000000000000000000000000000000000000000000000815260040161023e906115bd565b60405180910390fd5b336002600083815260200190815260200160002060006101000a81548173ffffffffffffffffffffffffffffffffffffffff021916908373ffffffffffffffffffffffffffffffffffffffff16021790555050565b600381815481106102ac57600080fd5b90600052602060002090600702016000915090508060000180546102cf9061160c565b80601f01602080910402602001604051908101604052809291908181526020018280546102fb9061160c565b80156103485780601f1061031d57610100808354040283529160200191610348565b820191906000526020600020905b81548152906001019060200180831161032b57829003601f168201915b50505050509080600101805461035d9061160c565b80601f01602080910402602001604051908101604052809291908181526020018280546103899061160c565b80156103d65780601f106103ab576101008083540402835291602001916103d6565b820191906000526020600020905b8154815290600101906020018083116103b957829003601f168201915b5050505050908060020180546103eb9061160c565b80601f01602080910402602001604051908101604052809291908181526020018280546104179061160c565b80156104645780601f1061043957610100808354040283529160200191610464565b820191906000526020600020905b81548152906001019060200180831161044757829003601f168201915b5050505050908060030180546104799061160c565b80601f01602080910402602001604051908101604052809291908181526020018280546104a59061160c565b80156104f25780601f106104c7576101008083540402835291602001916104f2565b820191906000526020600020905b8154815290600101906020018083116104d557829003601f168201915b5050505050908060040154908060050154908060060154905087565b610516610def565b600380549050821061055d576040517f08c379a0000000000000000000000000000000000000000000000000000000008152600401610554906115bd565b60405180910390fd5b600382815481106105715761057061163d565b5b90600052602060002090600702016040518060e001604052908160008201805461059a9061160c565b80601f01602080910402602001604051908101604052809291908181526020018280546105c69061160c565b80156106135780601f106105e857610100808354040283529160200191610613565b820191906000526020600020905b8154815290600101906020018083116105f657829003601f168201915b5050505050815260200160018201805461062c9061160c565b80601f01602080910402602001604051908101604052809291908181526020018280546106589061160c565b80156106a55780601f1061067a576101008083540402835291602001916106a5565b820191906000526020600020905b81548152906001019060200180831161068857829003601f168201915b505050505081526020016002820180546106be9061160c565b80601f01602080910402602001604051908101604052809291908181526020018280546106ea9061160c565b80156107375780601f1061070c57610100808354040283529160200191610737565b820191906000526020600020905b81548152906001019060200180831161071a57829003601f168201915b505050505081526020016003820180546107509061160c565b80601f016020809104026020016040519081016040528092919081815260200182805461077c9061160c565b80156107c95780601f1061079e576101008083540402835291602001916107c9565b820191906000526020600020905b8154815290600101906020018083116107ac57829003601f168201915b5050505050815260200160048201548152602001600582015481526020016006820154815250509050919050565b428111610839576040517f08c379a0000000000000000000000000000000000000000000000000000000008152600401610830906116de565b60405180910390fd5b60036040518060e0016040528089815260200188815260200187815260200186815260200185815260200184815260200183815250908060018154018082558091505060019003906000526020600020906007020160009091909190915060008201518160000190816108ac91906118aa565b5060208201518160010190816108c291906118aa565b5060408201518160020190816108d891906118aa565b5060608201518160030190816108ee91906118aa565b506080820151816004015560a0820151816005015560c082015181600601555050600060038054905090503360008083815260200190815260200160002060006101000a81548173ffffffffffffffffffffffffffffffffffffffff021916908373ffffffffffffffffffffffffffffffffffffffff160217905550807ffe4bab346f829befef434d13b8a3531f55be66682d086bc59ccb48d9968319dd898989898989896040516109a69796959493929190610f42565b60405180910390a25050505050505050565b60026020528060005260406000206000915054906101000a900473ffffffffffffffffffffffffffffffffffffffff1681565b6003805490508110610a32576040517f08c379a0000000000000000000000000000000000000000000000000000000008152600401610a29906115bd565b60405180910390fd5b60016000828152602001908152602001600020339080600181540180825580915050600190039060005260206000200160009091909190916101000a81548173ffffffffffffffffffffffffffffffffffffffff021916908373ffffffffffffffffffffffffffffffffffffffff16021790555050565b60606003805480602002602001604051908101604052809291908181526020016000905b82821015610d6557838290600052602060002090600702016040518060e0016040529081600082018054610b009061160c565b80601f0160208091040260200160405190810160405280929190818152602001828054610b2c9061160c565b8015610b795780601f10610b4e57610100808354040283529160200191610b79565b820191906000526020600020905b815481529060010190602001808311610b5c57829003601f168201915b50505050508152602001600182018054610b929061160c565b80601f0160208091040260200160405190810160405280929190818152602001828054610bbe9061160c565b8015610c0b5780601f10610be057610100808354040283529160200191610c0b565b820191906000526020600020905b815481529060010190602001808311610bee57829003601f168201915b50505050508152602001600282018054610c249061160c565b80601f0160208091040260200160405190810160405280929190818152602001828054610c509061160c565b8015610c9d5780601f10610c7257610100808354040283529160200191610c9d565b820191906000526020600020905b815481529060010190602001808311610c8057829003601f168201915b50505050508152602001600382018054610cb69061160c565b80601f0160208091040260200160405190810160405280929190818152602001828054610ce29061160c565b8015610d2f5780601f10610d0457610100808354040283529160200191610d2f565b820191906000526020600020905b815481529060010190602001808311610d1257829003601f168201915b50505050508152602001600482015481526020016005820154815260200160068201548152505081526020019060010190610acd565b50505050905090565b60016020528160005260406000208181548110610d8a57600080fd5b906000526020600020016000915091509054906101000a900473ffffffffffffffffffffffffffffffffffffffff1681565b60006020528060005260406000206000915054906101000a900473ffffffffffffffffffffffffffffffffffffffff1681565b6040518060e00160405280606081526020016060815260200160608152602001606081526020016000815260200160008152602001600081525090565b6000604051905090565b600080fd5b600080fd5b6000819050919050565b610e5381610e40565b8114610e5e57600080fd5b50565b600081359050610e7081610e4a565b92915050565b600060208284031215610e8c57610e8b610e36565b5b6000610e9a84828501610e61565b91505092915050565b600081519050919050565b600082825260208201905092915050565b60005b83811015610edd578082015181840152602081019050610ec2565b60008484015250505050565b6000601f19601f8301169050919050565b6000610f0582610ea3565b610f0f8185610eae565b9350610f1f818560208601610ebf565b610f2881610ee9565b840191505092915050565b610f3c81610e40565b82525050565b600060e0820190508181036000830152610f5c818a610efa565b90508181036020830152610f708189610efa565b90508181036040830152610f848188610efa565b90508181036060830152610f988187610efa565b9050610fa76080830186610f33565b610fb460a0830185610f33565b610fc160c0830184610f33565b98975050505050505050565b600082825260208201905092915050565b6000610fe982610ea3565b610ff38185610fcd565b9350611003818560208601610ebf565b61100c81610ee9565b840191505092915050565b61102081610e40565b82525050565b600060e08301600083015184820360008601526110438282610fde565b9150506020830151848203602086015261105d8282610fde565b915050604083015184820360408601526110778282610fde565b915050606083015184820360608601526110918282610fde565b91505060808301516110a66080860182611017565b5060a08301516110b960a0860182611017565b5060c08301516110cc60c0860182611017565b508091505092915050565b600060208201905081810360008301526110f18184611026565b905092915050565b600080fd5b600080fd5b7f4e487b7100000000000000000000000000000000000000000000000000000000600052604160045260246000fd5b61113b82610ee9565b810181811067ffffffffffffffff8211171561115a57611159611103565b5b80604052505050565b600061116d610e2c565b90506111798282611132565b919050565b600067ffffffffffffffff82111561119957611198611103565b5b6111a282610ee9565b9050602081019050919050565b82818337600083830152505050565b60006111d16111cc8461117e565b611163565b9050828152602081018484840111156111ed576111ec6110fe565b5b6111f88482856111af565b509392505050565b600082601f830112611215576112146110f9565b5b81356112258482602086016111be565b91505092915050565b600080600080600080600060e0888a03121561124d5761124c610e36565b5b600088013567ffffffffffffffff81111561126b5761126a610e3b565b5b6112778a828b01611200565b975050602088013567ffffffffffffffff81111561129857611297610e3b565b5b6112a48a828b01611200565b965050604088013567ffffffffffffffff8111156112c5576112c4610e3b565b5b6112d18a828b01611200565b955050606088013567ffffffffffffffff8111156112f2576112f1610e3b565b5b6112fe8a828b01611200565b945050608061130f8a828b01610e61565b93505060a06113208a828b01610e61565b92505060c06113318a828b01610e61565b91505092959891949750929550565b600073ffffffffffffffffffffffffffffffffffffffff82169050919050565b600061136b82611340565b9050919050565b61137b81611360565b82525050565b60006020820190506113966000830184611372565b92915050565b600081519050919050565b600082825260208201905092915050565b6000819050602082019050919050565b600060e08301600083015184820360008601526113e58282610fde565b915050602083015184820360208601526113ff8282610fde565b915050604083015184820360408601526114198282610fde565b915050606083015184820360608601526114338282610fde565b91505060808301516114486080860182611017565b5060a083015161145b60a0860182611017565b5060c083015161146e60c0860182611017565b508091505092915050565b600061148583836113c8565b905092915050565b6000602082019050919050565b60006114a58261139c565b6114af81856113a7565b9350836020820285016114c1856113b8565b8060005b858110156114fd57848403895281516114de8582611479565b94506114e98361148d565b925060208a019950506001810190506114c5565b50829750879550505050505092915050565b60006020820190508181036000830152611529818461149a565b905092915050565b6000806040838503121561154857611547610e36565b5b600061155685828601610e61565b925050602061156785828601610e61565b9150509250929050565b7f496e76616c696420696400000000000000000000000000000000000000000000600082015250565b60006115a7600a83610eae565b91506115b282611571565b602082019050919050565b600060208201905081810360008301526115d68161159a565b9050919050565b7f4e487b7100000000000000000000000000000000000000000000000000000000600052602260045260246000fd5b6000600282049050600182168061162457607f821691505b602082108103611637576116366115dd565b5b50919050565b7f4e487b7100000000000000000000000000000000000000000000000000000000600052603260045260246000fd5b7f446561646c696e65206d7573742062652067726561746572207468616e20637560008201527f7272656e74206461746500000000000000000000000000000000000000000000602082015250565b60006116c8602a83610eae565b91506116d38261166c565b604082019050919050565b600060208201905081810360008301526116f7816116bb565b9050919050565b60008190508160005260206000209050919050565b60006020601f8301049050919050565b600082821b905092915050565b6000600883026117607fffffffffffffffffffffffffffffffffffffffffffffffffffffffffffffffff82611723565b61176a8683611723565b95508019841693508086168417925050509392505050565b6000819050919050565b60006117a76117a261179d84610e40565b611782565b610e40565b9050919050565b6000819050919050565b6117c18361178c565b6117d56117cd826117ae565b848454611730565b825550505050565b600090565b6117ea6117dd565b6117f58184846117b8565b505050565b5b818110156118195761180e6000826117e2565b6001810190506117fb565b5050565b601f82111561185e5761182f816116fe565b61183884611713565b81016020851015611847578190505b61185b61185385611713565b8301826117fa565b50505b505050565b600082821c905092915050565b600061188160001984600802611863565b1980831691505092915050565b600061189a8383611870565b9150826002028217905092915050565b6118b382610ea3565b67ffffffffffffffff8111156118cc576118cb611103565b5b6118d6825461160c565b6118e182828561181d565b600060209050601f8311600181146119145760008415611902578287015190505b61190c858261188e565b865550611974565b601f198416611922866116fe565b60005b8281101561194a57848901518255600182019150602085019450602081019050611925565b868310156119675784890151611963601f891682611870565b8355505b6001600288020188555050505b50505050505056fea2646970667358221220c8b055785d5d6337cf3d6be2cd54cc8cfd1560ba9dc9b893da6da5fb0d3ff4ba64736f6c63430008180033",
  "linkReferences": {},
  "deployedLinkReferences": {}
}